:100000000C94C6010C94EE010C94EE010C94EE01DC
:100010000C94EE010C94EE010C94EE010C94EE01A4
:100020000C94EE010C9423050C94F20F0C947910AF
:100030000C94EE010C94EE010C94EE010C94EE0184
:100040000C94EE010C94EE010C94EE010C94EE0174
:100050000C94EE010C94EE010C94EE010C94F70755
:100060000C94EE010C94C50A0C94130B0C94EE0145
:100070000C94EE010C94EE010C94EE010C94EE0144
:100080000C94EE010C94EE010C94EE010C94EE0134
:100090000C94EE010C94EE010C94EE010C94EE0124
:1000A0000C94EE010C94EE010C94EE0100C20100E0
:1000B0000100110011000C0000E100000500230008
:1000C0002300210000960000190039003900360095
:1000D000127A00001F0046004600440080700000B5
:1000E00022004D004D004A00004B00003600750014
:1000F00075007200403800004A009C009C00990086
:10010000802500007200EC00EC00E900C012000045
:10011000E900DA01DA01D70160090000D701B6036E
:10012000B603B303B0040000B3036E076E076B079A
:10013000580200006E07DC0EDC0ED80E2C01000009
:10014000DC0EC11DC11DBE1D0000000024002700E3
:100150002A002D00300000000000250028002B00A0
:100160002E003100000000002300260029002C0092
:100170002F00040404040403040502020202040321
:100180000202020206060606060604040202020431
:100190000408020110408040102040804080080286
:1001A0000401804020100201108010204040000017
:1001B000000200080E0000030401000B0000000014
:1001C0000000000000000000000000000706050419
:1001D0000100080A0B0C0D09080B000202020100C5
:1001E000090400000102020000052400100105249A
:1001F000010101042402060524060001070581030C
:1002000010004009040100020A0000000705020274
:100210004000000705830240000004030904220394
:10022000410072006400750069006E006F002000DC
:100230004D006900630072006F0020002000200064
:100240001803410072006400750069006E006F00C1
:1002500020004C004C00430012010002000000404E
:100260004123378000010102000112010002020057
:1002700000404123378000010102000100C180815C
:10028000C105010902A1010901A1008501050919A2
:10029000012903150025019503750181029501755A
:1002A00005810305010930093109381581257F755C
:1002B0000895038106C0C005010906A10185020554
:1002C0000719E029E71500250175019508810295B8
:1002D0000175088103950675081500256505071940
:1002E0000029658100C00904020001030000000923
:1002F000210101000122650007058403400001007F
:10030000000000000000002A2B2800000000000070
:100310000000000000000000000000000000002CB1
:100320009EB4A0A1A2A434A6A7A5AE362D37382727
:100330001E1F20212223242526B333B62EB7B89FB3
:100340008485868788898A8B8C8D8E8F90919293F5
:100350009495969798999A9B9C9D2F3130A3AD3593
:100360000405060708090A0B0C0D0E0F10111213D5
:100370001415161718191A1B1C1DAFB1B0B50000C3
:100380007002F9097F0C2C0F0412690211241FBEA0
:10039000CFEFDAE0DEBFCDBF12E0A0E0B1E0E4EBEA
:1003A000F7E202C005900D92AC31B107D9F713E026
:1003B000ACE1B2E001C01D92A739B107E1F713E04B
:1003C000CAE8D3E004C02297FE010E949213C0380D
:1003D000D107C9F70E94D50C0C94CD130C940000E2
:1003E000A0E0B0E0E6EFF1E00C949E13EC01A880F1
:1003F000B980CA80DB80A114B104C104D10441F4E6
:1004000084E2A82E89EDB82E8BE5C82E87E0D82E81
:10041000C601B5012DE133EF41E050E00E946113C8
:1004200027EA31E440E050E00E940D137B018C018B
:10043000C601B5012DE133EF41E050E00E946113A8
:10044000CA01B9012CEE34EF4FEF5FEF0E940D139C
:100450006E0D7F1D801F911F97FF04C0615070407B
:1004600080409048688379838A839B839B01AC0199
:100470005F77B901CA01CDB7DEB7EAE00C94BA13D1
:100480000E94F001089584EC91E00E94F00108952B
:100490006093C4017093C5018093C6019093C70116
:1004A00008958130910559F46F5F7F4F89F48CE195
:1004B00092E06BE04CE020E00E94C9070895892B90
:1004C00039F46F5F7F4F21F48CE192E00E94500677
:1004D000089580E090E06FEF7FEF0E945102089551
:1004E00081E090E06FEF7FEF0E94510208959F92AC
:1004F000AF92BF92CF92DF92EF92FF920F931F9332
:10050000DF93CF9300D000D0CDB7DEB78FE593E077
:100510000E94D50B892B09F49FC18FE593E00E94BF
:10052000060C8F34910509F467C18035910564F498
:100530008233910509F45AC08234910509F46EC1E1
:10054000C19709F089C10DC08435910509F464C1D2
:100550008835910509F474C18235910509F07CC193
:1005600059C182E060E00E947B0983E061E00E9463
:100570007B0984E060E00E947B0985E061E00E94E5
:100580007B0986E060E00E947B0987E061E00E94D1
:100590007B0988E060E00E947B0989E061E00E94BD
:1005A0007B098AE060E00E947B098DE061E00E94A7
:1005B0007B0982E160E00E947B0983E161E00E94A7
:1005C0007B0984E160E00E947B0985E161E00E9493
:1005D0007B0986E160E00E947B0987E161E00E947F
:1005E0007B0989EC92E060E071E04DC08CE192E023
:1005F00068EC71E043E050E00E94E80C89EC92E086
:100600006DE071E00E94660E68EE73E080E090E0BD
:100610000E943F0810E064EF71E080E090E00E94EB
:100620003F088CE192E06EEC71E043E050E00E9404
:10063000E80C8CE192E00E947A0618161906CCF7B5
:100640008CE192E00E945906082F89EC92E061E269
:1006500071E00E94630E89EC92E0612F4AE050E065
:100660000E94E60D1F5F1A3019F00130A1F60EC08E
:10067000002361F489EC92E066E40E94120D89EC9B
:1006800092E066E371E00E94660EE6C089EC92E0BB
:1006900068E471E00E94660E68EB7BE080E090E029
:1006A0000E943F08CC24DD2400E010E023E0922EDD
:1006B0009AEDA92E8EE0B82E7E010894E11CF11C63
:1006C0009982AA82BB820C838CE192E0B70144E05C
:1006D00050E00E94E80CC00ED11E89EC92E062E569
:1006E00071E00E94630E89EC92E0B8014AE050E0AC
:1006F0000E94440E89EC92E061E671E00E94630E74
:1007000089EC92E0B6014AE050E00E94C90D62E334
:1007100070E080E090E00E943F080F5F1F4F0436BA
:10072000110571F600E0EE24FF248CE192E00E94B6
:100730007A06892BD1F38CE192E00E9459068CE174
:1007400092E00E945906182FE80EF11C89EC92E005
:1007500062E771E00E94630E89EC92E0612F4AE04B
:1007600050E00E94E60D0F5F0436F9F68CE192E04E
:100770006BEC71E043E050E00E94E80C89EC92E001
:100780006DE771E00E94630E89EC92E0B7014AE0E8
:1007900050E00E94C90DCE14DF0401F18FE593E013
:1007A00062E40E94120D89EC92E06EE971E00E9411
:1007B000660E8DE061E00E947B0968EE73E080E0E8
:1007C00090E00E943F088DE060E00E947B0968EEA7
:1007D00073E080E090E00E943F08EBCF8FE593E06C
:1007E00067E40E94120D8DE061E00E947B0989ECB4
:1007F00092E064EB71E047CF28985D988DE060E06F
:100800000E947B0983E0898380EC8A8387EB8B835A
:100810001C820CC0289A20C05D9A1EC083E0898388
:1008200080EC8A8387EB8B8381E08C838CE192E080
:10083000BE016F5F7F4F44E050E00E94E80C0CC0A7
:100840008FE593E064E40E94120D64EF71E080E0B4
:1008500090E00E943F08F4CF0F900F900F900F9000
:10086000CF91DF911F910F91FF90EF90DF90CF908C
:10087000BF90AF909F9008950F931F9368EE73E021
:1008800080E090E00E943F0882E061E00E94EE0874
:1008900083E061E00E94EE0884E061E00E94EE08DF
:1008A00085E061E00E94EE0886E061E00E94EE08CB
:1008B00087E061E00E94EE0888E061E00E94EE08B7
:1008C00089E061E00E94EE088AE061E00E94EE08A3
:1008D0008DE061E00E94EE0882E161E00E94EE0896
:1008E00083E161E00E94EE0884E161E00E94EE088D
:1008F00085E161E00E94EE0886E161E00E94EE0879
:1009000087E161E00E94EE080FE513E0C80140E8CE
:1009100055E260E070E00E944E0B8CE192E040E016
:1009200051EE60E070E00E944D0568EE73E080E0FB
:1009300090E00E943F08C8016CE40E94120D89EC0F
:1009400092E060E071EE0E94AE0985E090E00E94C6
:10095000C2111F910F9108951F93CF93DF93DC0174
:100960005B968C915B971E96ED91FC911F971D965F
:100970009C911D9781FF05C08081892309F45FC088
:1009800004C08081892309F05AC053968D919C91AF
:10099000549720E001972FEF8F3F9207D9F7559694
:1009A000CD91DC9156971E96ED91FC911F971D9667
:1009B0007C911D9760E031E040E050E010E0CE0116
:1009C000212F01972FEF8F3F9207D9F7808187233F
:1009D00011F0632B03C0832F80956823330F4F5F83
:1009E0005F4F4830510559F757968D919C91589714
:1009F00020E001972FEF8F3F9207D9F780917A027D
:100A000020917B0290E001968F73907030E0821706
:100A1000930779F0E0917A02F0E0E65CFD4F6083A5
:100A200080917A0290E001968F73907080937A02A1
:100A300006C05B968C915B9781605B968C93DF918F
:100A4000CF911F9108951F920F920FB60F9211240C
:100A50002F933F934F935F936F937F938F939F93C6
:100A6000AF93BF93EF93FF93809138029091390237
:100A7000009711F00E94AC04FF91EF91BF91AF91EC
:100A80009F918F917F916F915F914F913F912F91A6
:100A90000F900FBE0F901F901895CF92DF92EF929C
:100AA000FF920F931F93CF93DF93EC017A018B0199
:100AB0001A8E198E188E1F8A1E8A1D8A1C8A1B8AFE
:100AC00020E030E06901CC0CDD1CC20ED31EB60163
:100AD000660F771F660F771FAB0144555F4FFA0112
:100AE00085919591A591B4918E159F05A007B107A9
:100AF000E9F4FB01E055FF4F859194919C8B8B8B22
:100B0000FB01EE54FF4F859194919E8B8D8BFB01E1
:100B1000EC54FF4F85919491988F8F8BFB01EA5491
:100B2000FF4F859194919A8F898F06C02F5F3F4F19
:100B30002D30310509F0C6CF8F89988D892B09F4A6
:100B400057C09C85892F8850843038F08650843077
:100B500020F09A51933008F043C080916800816082
:100B6000809368002C85922F9850943090F0822FBB
:100B70008E50843070F08C50833008F451C0A0E067
:100B8000B0E0833018F0E0E0F0E007C0EBE6F0E022
:100B900004C0EBE6F0E0ABE6B0E04081943020F436
:100BA00030E02450304013C02E3011F488E016C0DD
:100BB0002F3011F482E012C0203111F484E00EC015
:100BC000213111F481E00AC030E02651304081E04B
:100BD00090E002C0880F991F2A95E2F7842B8C932E
:100BE000898D9A8D20E001972FEF8F3F9207D9F7DB
:100BF00080913802909139028C179D07A1F08B8D5E
:100C00008E7F8B8F9FB7F89410927A0280917A0230
:100C100080937B02D0933902C09338029FBF03C0F8
:100C2000ABE6B0E0AECFDF91CF911F910F91FF9077
:100C3000EF90DF90CF900895FC012485922F98507B
:100C4000943038F0822F8E50843018F08C508330DE
:100C500030F540916B00943020F430E02450304067
:100C600013C02E3011F487EF17C02F3011F48DEF21
:100C700013C0203111F48BEF0FC0213111F48EEF2E
:100C80000BC030E02651304081E090E002C0880F78
:100C9000991F2A95E2F78095842380936B0008952D
:100CA000FC018FED91E091838083CF010E941C06AF
:100CB000089520913802309139022817390731F40C
:100CC00090917B0280917A02981719F42FEF3FEFF1
:100CD0000FC0E0917B02F0E0E65CFD4F2081809147
:100CE0007B0290E001968F73907080937B0230E0DE
:100CF000C901089520913802309139022817390727
:100D000019F020E030E00EC080917A0220917B0241
:100D100090E0805C9F4F821B910960E470E00E942C
:100D20002C139C01C90108950F931F93DC01599660
:100D30008D919C915A97892B49F481E090E013960C
:100D40009C938E93129720E030E097C00FB7F894F1
:100D50005B968C915B975196ED91FC9152975096D2
:100D60002C91509781FF8DC08081822B8083599672
:100D70008D919C915A97059620E001972FEF8F3F18
:100D80009207D9F75B968C915B9781FF35C031E074
:100D900040E050E070E010E0832F90E0862397233E
:100DA0005196ED91FC91529750962C915097892B2A
:100DB00029F0808120952823208303C08081822B05
:100DC000808359968D919C915A97212F01972FEFEF
:100DD0008F3F9207D9F7330F4F5F5F4F4830510570
:100DE000D9F65196ED91FC915297908150968C9145
:100DF00050978095892333C031E040E050E070E0A7
:100E000010E0832F90E0862397235196ED91FC917B
:100E1000529750962C915097892B21F08081822BEC
:100E2000808304C0808120952823208359968D914A
:100E30009C915A97212F01972FEF8F3F9207D9F757
:100E4000330F4F5F5F4F48305105D9F65196ED9102
:100E5000FC915297808150969C915097892B80836A
:100E60000FBF59968D919C915A9720E001972FEFD3
:100E70008F3F9207D9F721E030E0C9011F910F9110
:100E80000895808120952823208371CF20913802F6
:100E9000309139022817390749F49FB7F894109216
:100EA0007A0280917A0280937B029FBF08952091FD
:100EB0003802309139022817390731F490917B02BA
:100EC00080917A02981719F42FEF3FEF0AC0E09152
:100ED0007B02F0E0E65CFD4F8081282F332727FD61
:100EE0003095C90108951F93CF93DF93EC01162F1E
:100EF000862F60E00E94EE088B8D81FD04C0812F5B
:100F000061E00E947B091C87212F30E0C9018057D6
:100F10009E4FFC0184918D872E583E4FF9016491BC
:100F2000E62FF0E0EE0FFF1FEC59FE4F85919491F4
:100F30009F878E87DF91CF911F910895FF920F9326
:100F40001F938C01F62E862F61E00E94EE088F2DF4
:100F500061E00E947B098F2D90E0FC01E057FE4F7D
:100F6000E491D8015096EC9350978E589E4FFC0117
:100F70006491E62FF0E0EE0FFF1FEA5AFE4F8591D5
:100F8000949152969C938E9351971F910F91FF903D
:100F90000895FF920F931F938C01F62EFC0113828C
:100FA000128288EE93E0A0E0B0E084839583A6836C
:100FB000B7838FED91E091838083148A138A168A18
:100FC000158A108E178A128E118E838D2170220F32
:100FD0008C7F822B838FC801642F0E949E07C801DB
:100FE0006F2D0E9473071F910F91FF9008951F921C
:100FF0000F920FB60F9211242F933F938F939F93CD
:10100000AF93BF938091800290918102A091820260
:10101000B0918302309184020196A11DB11D232F4E
:101020002D5F2D3720F02D570196A11DB11D209366
:1010300084028093800290938102A0938202B093F5
:10104000830280917C0290917D02A0917E02B091FA
:101050007F020196A11DB11D80937C0290937D02B9
:10106000A0937E02B0937F02BF91AF919F918F9129
:101070003F912F910F900FBE0F901F9018959B01DD
:10108000AC017FB7F89480917C0290917D02A09191
:101090007E02B0917F0266B5A89B05C06F3F19F034
:1010A0000196A11DB11D7FBFBA2FA92F982F8827A8
:1010B000860F911DA11DB11D62E0880F991FAA1F07
:1010C000BB1F6A95D1F7BC012DC0FFB7F894809182
:1010D0007C0290917D02A0917E02B0917F02E6B5E4
:1010E000A89B05C0EF3F19F00196A11DB11DFFBFE0
:1010F000BA2FA92F982F88278E0F911DA11DB11DE2
:10110000E2E0880F991FAA1FBB1FEA95D1F7861B43
:10111000970B885E9340C8F22150304040405040C9
:1011200068517C4F211531054105510571F608952F
:10113000789484B5826084BD84B5816084BD85B5B2
:10114000826085BD85B5816085BDEEE6F0E0808179
:1011500081608083E1E8F0E010828081826080839A
:10116000808181608083E0E8F0E08081816080831D
:10117000E1E9F0E08081826080838081816080830A
:10118000E0E9F0E0808181608083E1ECF0E0808143
:10119000846080838081826080838081816080839D
:1011A000E3ECF0E0808181608083E0ECF0E080811E
:1011B00082608083E2ECF0E0808181608083EAE7F6
:1011C000F0E0808184608083808182608083808180
:1011D000816080838081806880830895CF93DF93CE
:1011E000482F50E0CA0180579E4FFC0134914E5861
:1011F0005E4FFA018491882369F190E0880F991F6E
:10120000FC01E85BFE4FA591B491FC01EA5AFE4F48
:10121000C591D491662351F42FB7F8948C91932FF4
:10122000909589238C93888189230BC0623061F467
:101230002FB7F8948C91932F909589238C93888164
:10124000832B88832FBF06C09FB7F8948C91832B84
:101250008C939FBFDF91CF910895883071F18930D1
:1012600068F4823031F1833020F4813009F042C0DB
:101270001DC0833089F08430E9F512C08B3059F1FC
:101280008C3028F48930E9F08A30A1F51EC08C300A
:1012900031F18E3079F529C0809180008F7703C0BD
:1012A000809180008F7D80938000089584B58F7732
:1012B00002C084B58F7D84BD0895809190008F77A2
:1012C00007C0809190008F7D03C080919000877F40
:1012D0008093900008958091C0008F7703C0809123
:1012E000C0008F7D8093C00008958091C200877FE9
:1012F0008093C2000895FF920F931F93F62E482FFC
:1013000050E0CA0182559E4FFC012491CA018057CA
:101310009E4FFC0114914E585E4FFA010491002338
:10132000C9F0222319F0822F0E942D09E02FF0E04E
:10133000EE0FFF1FEA5AFE4FA591B4919FB7F894A4
:10134000FF2021F48C911095812302C08C91812B78
:101350008C939FBF1F910F91FF9008950895209146
:10136000C5023091C6028091C7029091C802281B25
:10137000390B2F733070C90108952091C502309147
:10138000C6028091C7029091C8022817390719F444
:101390002FEF3FEF09C0E091C702F091C802EB5771
:1013A000FD4F8081282F30E0C90108952091C502AA
:1013B0003091C6028091C7029091C8022817390760
:1013C00019F42FEF3FEF13C0E091C702F091C8026C
:1013D000EB57FD4F20818091C7029091C802019682
:1013E0008F7390709093C8028093C70230E0C90158
:1013F00008951092CC021092CB0288EE93E0A0E008
:10140000B0E08093CD029093CE02A093CF02B09330
:10141000D0028FEE91E09093CA028093C9020895A2
:101420000F931F93DF93CF930F92CDB7DEB78C014D
:1014300069838091D801882369F083E0BE016F5FE2
:101440007F4F41E050E00E944D0F1816190614F42A
:101450009C0107C081E090E0F8019383828320E043
:1014600030E0C9010F90CF91DF911F910F91089546
:1014700083E00E94220F0895CF93DF9312C082E091
:101480000E94AD0E2FEF8F3F9207C9F0E091C50289
:10149000F091C602EB57FD4F8083D093C602C093F4
:1014A000C502C091C502D091C6022196CF73D070FB
:1014B0008091C7029091C802C817D90701F7DF9140
:1014C000CF910895FC0180818E5F808380E868ED74
:1014D00071E042E450E00E94C60E0895FC01818153
:1014E0009081913A59F4813209F04CC080E061ED6D
:1014F00071E047E050E00E94C60E42C0913209F010
:1015000041C0803239F481ED91E067E070E00E94E3
:101510000A0F36C0823209F035C082818093D8012B
:101520008091D1019091D201A091D301B091D401C9
:10153000805B9440A040B04019F58091D80180FDB7
:1015400012C087E797E790930108809300082BE08B
:1015500088E190E00FB6F894A895809360000FBEE4
:10156000209360000DC088E10FB6F894809360006E
:10157000109260000FBEA89510920108109200080A
:1015800081E0089580E0089508951F920F920FB6AC
:101590000F9211242F933F934F938F939F93EF9329
:1015A000FF938091C80082FD1DC04091CE00209124
:1015B0001703309118032F5F3F4F2F7330708091C6
:1015C000190390911A032817390771F0E091170356
:1015D000F0911803E952FD4F408330931803209394
:1015E000170302C08091CE00FF91EF919F918F91E0
:1015F0004F913F912F910F900FBE0F901F90189514
:10160000E0916B03F0916C03E05CFF4F819191914D
:1016100020813181821B930B8F739070892B11F085
:101620000E94C40A08951F920F920FB60F921124C0
:101630002F933F938F939F93EF93FF9320915B039F
:1016400030915C0380915D0390915E032817390708
:1016500031F48091C9008F7D8093C90014C0E0915E
:101660005D03F0915E03E55EFC4F208180915D0398
:1016700090915E0301968F73907090935E038093B8
:101680005D032093CE00FF91EF919F918F913F9149
:101690002F910F900FBE0F901F901895AF92BF9291
:1016A000DF92EF92FF920F931F93CF93DF93EC01A2
:1016B0007A018B01DD24403081EE580780E0680715
:1016C00080E0780711F0DD24D39491E0A92EB12CAD
:1016D000EC89FD89DD2069F0C50108A002C0880FF2
:1016E000991F0A94E2F7808360E079E08DE390E04F
:1016F00005C0108260E874E88EE190E0A8019701CF
:101700000E943F132150304040405040569547952D
:101710003795279580E12030380720F0DD2011F043
:10172000DD24D6CFE889F9893083EA89FB892083D3
:1017300019A2EE89FF89408121E030E0C9010C8CBB
:1017400002C0880F991F0A94E2F7482B4083EE8964
:10175000FF894081C9010D8C02C0880F991F0A942E
:10176000E2F7482B4083EE89FF894081C9010E8C46
:1017700002C0880F991F0A94E2F7482B4083EE8934
:10178000FF8980810F8C02C0220F331F0A94E2F779
:10179000209528232083DF91CF911F910F91FF90F7
:1017A000EF90DF90BF90AF900895DC011C96ED9113
:1017B000FC911D97E05CFF4F2191319180819181D7
:1017C000281B390B2F733070C9010895DC011C965A
:1017D000ED91FC911D97E05CFF4F20813181E05439
:1017E000F040DF01AE5BBF4F8D919C9111972817A0
:1017F000390719F42FEF3FEF07C08D919C91E80F47
:10180000F91F8081282F30E0C9010895DC011C9662
:10181000ED91FC911D97E05CFF4F20813181E054F8
:10182000F040DF01AE5BBF4F8D919C91119728175F
:10183000390719F42FEF3FEF10C08D919C9111974C
:10184000E80FF91F20818D919C91119701968F735C
:10185000907011969C938E9330E0C9010895DC013D
:1018600091968C919197882339F05496ED91FC9143
:101870005597808186FFF9CF91961C920895CF935A
:10188000DF93EC01EE85FF85E05CFF4F2081318125
:10189000E054F0402F5F3F4F2F733070DF01AE5B9D
:1018A000BF4F8D919C91119728173907D1F3E05CB8
:1018B000FF4F80819181E054F040E80FF91F608371
:1018C000EE85FF85E05CFF4F31832083EE89FF8941
:1018D000208181E090E00F8C02C0880F991F0A944C
:1018E000E2F7282B208381E089A3EC89FD898081A0
:1018F0008064808381E090E0DF91CF910895109221
:1019000062031092610388EE93E0A0E0B0E0809360
:10191000630390936403A0936503B093660381E02F
:1019200092E09093600380935F0387ED92E0909341
:101930006C0380936B038BE193E090936E03809331
:101940006D038DEC90E09093700380936F038CECAB
:1019500090E0909372038093710388EC90E09093F1
:1019600074038093730389EC90E0909376038093E3
:1019700075038AEC90E090937803809377038EEC64
:1019800090E090937A038093790384E080937B03C3
:1019900083E080937C0387E080937D0385E08093E0
:1019A0007E0381E080937F030895CF93DF930E94AD
:1019B000980889E893E00E942D0F0E943C04C0E043
:1019C000DBE00E9477022097E1F30E94000BF9CF41
:1019D000CF92DF92EF92FF920F931F93CF93DF93FB
:1019E0007C016B018A01C0E0D0E00FC0D6016D918F
:1019F0006D01D701ED91FC910190F081E02DC701BF
:101A00000995C80FD91F015010400115110571F734
:101A1000CE01DF91CF911F910F91FF90EF90DF905A
:101A2000CF900895DC01ED91FC910190F081E02DC3
:101A300009950895EF92FF920F931F938C01DC019B
:101A4000ED91FC910190F081E02D6DE009957C0114
:101A5000D801ED91FC910190F081E02DC8016AE080
:101A600009959C012E0D3F1DC9011F910F91FF90FB
:101A7000EF900895CF93DF93EC016115710519F490
:101A800020E030E00FC0DB010D900020E9F7119756
:101A9000A61BB70BE881F9810280F381E02DAD012F
:101AA00009959C01C901DF91CF9108954F925F92F2
:101AB0007F928F929F92AF92BF92CF92DF92EF92DE
:101AC000FF920F931F93DF93CF93CDB7DEB7A1970C
:101AD0000FB6F894DEBF0FBECDBF2C01742ECB0124
:101AE000223008F42AE019A231E2C32ED12CCC0E08
:101AF000DD1E822E9924AA24BB24672D752FA501F3
:101B000094010E943F1379018A01C801B701A50120
:101B100094010E940D13472D461B0894C108D1085B
:101B20004A3014F4405D01C0495CF6014083E11481
:101B3000F1040105110521F07E2C5F2DC801DDCFD8
:101B4000C201B6010E943A0DA1960FB6F894DEBF0D
:101B50000FBECDBFCF91DF911F910F91FF90EF90FE
:101B6000DF90CF90BF90AF909F908F907F905F90CD
:101B70004F900895DC012115310541F4ED91FC9160
:101B80000190F081E02D642F099508950E94560D73
:101B90000895CF92DF92EF92FF920F931F936C0103
:101BA0007B019A0100E010E0B801A7010E94BA0D84
:101BB0008C01C6010E941A0D080F191FC8011F9140
:101BC0000F91FF90EF90DF90CF900895CF92DF922A
:101BD000EF92FF920F931F936C01E62E9A01FF2460
:101BE00000E010E0B801A7010E94BA0D8C01C60107
:101BF0000E941A0D080F191FC8011F910F91FF9025
:101C0000EF90DF90CF900895CF92DF92EF92FF9206
:101C10000F931F93CF93DF93EC016A017B01211592
:101C2000310541F4E881F9810190F081E02D642FC4
:101C300009951FC02A303105D1F477FF17C0E8811C
:101C4000F9810190F081E02D6DE209958C01442726
:101C50005527BA014C195D096E097F09CE012AE0AA
:101C60000E94560D9801280F391F04C02AE00E94D7
:101C7000560D9C01C901DF91CF911F910F91FF90EB
:101C8000EF90DF90CF900895CF92DF92EF92FF9286
:101C90000F931F936C017B019A010027F7FC0095BD
:101CA000102FB801A7010E94040E8C01C6010E94EA
:101CB0001A0D080F191FC8011F910F91FF90EF9087
:101CC000DF90CF9008950E943A0D0895EF92FF9211
:101CD0000F931F937C010E943A0D8C01C7010E9453
:101CE0001A0D080F191FC8011F910F91FF90EF9057
:101CF0000895282F809183038823C1F057FF1AC0CD
:101D000015C0289A909382038091F1008193E21785
:101D1000F307B9F74115510539F08091F200882396
:101D200019F48BE68093E800AFBF02C04FEF5FEF7E
:101D3000CA010895AFB7F89427702093E900809105
:101D4000F200282F30E0241735070CF4A901FB011D
:101D50009B01240F311D94E6DACFDF93CF930F92CE
:101D6000CDB7DEB7BE016F5F7F4F41E050E00E940C
:101D7000790E019719F02FEF3FEF03C08981282FCB
:101D800030E0C9010F90CF91DF910895FF920F933A
:101D90001F93F82E142F052F40918603509187032F
:101DA000212F302FC901DC01FB016EEF29C0F7FEA6
:101DB00002C0949101C090812091840330918503E9
:101DC00024173507ACF48091E8008570E1F3809129
:101DD000E80082FF03C02FEF3FEF17C09093F100A0
:101DE000C90101968F739070892B11F46093E800FC
:101DF0002F5F3F4F309385032093840311973196D3
:101E00001097A9F6812F902F9C01C9011F910F9166
:101E1000FF9008959C018091E80082FFFCCFF901BA
:101E2000260F311D03C08091F1008193E217F30763
:101E3000D1F7289A84E6809382038BEF8093E800A1
:101E4000CB0108958093E9008091F200882319F076
:101E50008AE38093E800089508951092830381E057
:101E60008093D70080EA8093D80082E189BD09B4CD
:101E700000FEFDCF61E070E080E090E00E943F084E
:101E800080E98093D8008CE08093E2001092E0001B
:101E9000559A209A5D98289808955F926F927F9244
:101EA0008F929F92AF92BF92CF92DF92EF92FF926A
:101EB0000F931F93CF93DF93E82E842E752E80917E
:101EC0008303882371F18B01242F352FC901EC0185
:101ED0007AEFF72E67E0962E9E2050E4552E8E2D39
:101EE00090E040E2A42EB12CA822B9223AE3632E5E
:101EF00020E4C22ED12CC822D92258C09FB7F89412
:101F00009092E9008091E80085FD02C020E004C0C5
:101F10008091F200252D281B9FBF222361F4FA94A3
:101F200019F42FEF3FEF4DC061E070E080E090E0EA
:101F30000E943F083BC0822F90E0C817D9070CF4DD
:101F40002C2FC21BD1094FB7F8949092E900A1142D
:101F5000B10421F406C01092F10021502223D9F7D8
:101F600019C0E7FC03C0F801922F10C0C801322F3E
:101F700006C0FC010196E491E093F1003150332357
:101F8000C1F706C081918093F10091509923D1F758
:101F9000020F111D8091E80085FF05C0209729F4EC
:101FA000C114D10411F06092E8004FBF209709F0EE
:101FB000A5CF5D9A84E680938103282D372DC90132
:101FC0009C01C901DF91CF911F910F91FF90EF907C
:101FD000DF90CF90BF90AF909F908F907F906F9049
:101FE0005F9008951F920F920FB60F9211242F93B6
:101FF0003F934F935F936F937F938F939F93AF9391
:10200000BF93EF93FF938091E1001092E100982F2E
:1020100083FF0FC01092E90081E08093EB001092E3
:10202000EC0082E38093ED001092830388E08093BC
:10203000F00092FF34C083E08093E9008091F200C9
:10204000882319F08AE38093E8008FB7F89492E030
:102050009093E9009091F2008FBF992321F089ECD1
:1020600092E00E943C0A80918103882351F0809184
:10207000810381508093810380918103882309F437
:102080005D9880918203882351F080918203815072
:102090008093820380918203882309F42898FF911A
:1020A000EF91BF91AF919F918F917F916F915F91D0
:1020B0004F913F912F910F900FBE0F901F90189549
:1020C0000F931F93DF93CF930F92CDB7DEB7198293
:1020D0008E010F5F1F4FC8010E94620AC8010E9453
:1020E0000113898190E00F90CF91DF911F910F91A3
:1020F00008951F920F920FB60F921124EF92FF9244
:102100001F932F933F934F935F936F937F938F937F
:102110009F93AF93BF93EF93FF93DF93CF93CDB78D
:10212000DEB76197DEBFCDBF1092E9008091E80075
:1021300083FF0FC1FE0131969E01275F3F4F03C011
:102140008091F1008193E217F307D1F7289A84E692
:102150008093820382EF8093E800998197FF05C006
:102160008091E80080FFFCCF03C08EEF8093E800F1
:10217000292F30E0C90180769070892B09F0C2C008
:102180008A81882329F41092F1001092F100D6C0C0
:10219000813009F4D3C0833009F4D0C0853049F4CC
:1021A0008091E80080FFFCCF8B8180688093E30002
:1021B000C5C0863009F07CC01C81EF80F8841230E5
:1021C000C1F51092E90010928503109284031092D9
:1021D0008703109286030E94601099E0FE013996F1
:1021E000DF01292F1D922A95E9F799871A8791E037
:1021F0009E8790E8988B9AEF998B20918403309179
:102200008503275F3F4F3C872B878D871092E9001E
:102210001092850310928403F0928703E092860364
:1022200080E0BF0149E050E00E94C60E0E946010AD
:1022300085C01092E9001092850310928403F092F9
:102240008703E0928603123241F482E290E00E941A
:10225000F912892B09F476C071C0113079F488E045
:10226000E816F10419F481E08093880380918803D3
:10227000882309F06BC0E8E5F2E013C0133009F0E1
:1022800061C08B81882319F4EAE1F2E00AC0823050
:1022900019F4EEE1F2E005C0813009F053C0E0E44A
:1022A000F2E0449180E8BF0150E00E94C60E46C0B3
:1022B000873009F447C0883021F481E08093F10031
:1022C0003DC08930D9F523703070232BD9F5EDE767
:1022D000F2E091E031E026E39093E9003093EB00E7
:1022E00084918093EC002093ED009F5F31969530B0
:1022F00099F78EE78093EA001092EA008B81809331
:1023000083031CC08F8198851092E9001092850389
:102310001092840390938703809386038D81882392
:1023200029F4CE0101960E946E0A06C0823051F453
:10233000CE0101960E94CA11882321F08EEF80936E
:10234000E80007C081E28093EB0003C0EAE6F2E018
:10235000A8CF6196DEBFCDBFCF91DF91FF91EF9106
:10236000BF91AF919F918F917F916F915F914F91AD
:102370003F912F911F91FF90EF900F900FBE0F9004
:102380001F901895009729F0BC0180E090E00E9412
:1023900048020895FC0191818081813A31F49130A5
:1023A00089F080E0933089F40DC0813269F49B306C
:1023B00021F482818093D90105C09A3029F4828169
:1023C0008093DA0181E0089580E00895EF92FF9212
:1023D0000F931F938C01E62EDC01ED91FC9104809C
:1023E000F581E02D0995F82ED801ED91FC9106803C
:1023F000F781E02DC8016E2D09958F2D90E01F917A
:102400000F91FF90EF90089510928A0310928E031F
:1024100010928D0381E192E090938C0380938B0363
:102420000895EF92FF920F931F93DF93CF930F9234
:10243000CDB7DEB789838B017A0184E0BE016F5F7F
:102440007F4F41E050E00E944D0F84E4B801A701A6
:102450000E944D0F0F90CF91DF911F910F91FF9030
:10246000EF90089582E048E050E00E941112089534
:10247000FC0116821782108611861286138614823A
:102480003496BF010E9432120895DC01683810F0C2
:10249000685829C0E62FF0E067FF13C0E058F0400D
:1024A00081E090E002C0880F991FEA95E2F78095DD
:1024B00014962C911497282314962C93149760E06B
:1024C00012C0E150FD4F6491662319F420E030E022
:1024D0001DC067FF08C014968C9114978D7F1496C9
:1024E0008C9314976F77FD0190E0662321F086812D
:1024F000861709F416829F5F31969630B1F7CD01A9
:102500001496BD010E94321221E030E0C901089505
:10251000CF93DF93DC01683810F0685825C0E62FB0
:10252000F0E067FF12C0E058F04081E090E002C0A8
:10253000880F991FEA95E2F714962C911497282B8F
:1025400014962C93149760E00FC0E150FD4F6491F6
:102550006623D9F167FF08C014968C9114978260A6
:1025600014968C9314976F7716968C9116978617FE
:10257000A9F117968C911797861781F118968C916F
:102580001897861759F119968C911997861731F17A
:102590001A968C911A97861709F11B968C911B97A6
:1025A0008617E1F0ED01E0E0F0E09E2F8E818823B8
:1025B00021F4EA0FFB1F668306C09F5F31962196C8
:1025C000E630F10591F7963049F481E090E01396FA
:1025D0009C938E93129720E030E007C0CD011496B3
:1025E000BD010E94321221E030E0C901DF91CF919C
:1025F000089580E861E872E045E650E00E94C60E6A
:102600000895FC0180818F5F808380E866EE72E030
:1026100049E150E00E94C60E0895629FD001739F69
:10262000F001829FE00DF11D649FE00DF11D929F6E
:10263000F00D839FF00D749FF00D659FF00D9927AD
:10264000729FB00DE11DF91F639FB00DE11DF91FD1
:10265000BD01CF011124089597FB092E07260AD04A
:1026600077FD04D049D006D000201AF4709561950A
:102670007F4F0895F6F7909581959F4F0895A1E2B9
:102680001A2EAA1BBB1BFD010DC0AA1FBB1FEE1FEC
:10269000FF1FA217B307E407F50720F0A21BB30B37
:1026A000E40BF50B661F771F881F991F1A9469F7B3
:1026B00060957095809590959B01AC01BD01CF010F
:1026C000089597FB092E05260ED057FD04D0D7DFBD
:1026D0000AD0001C38F450954095309521953F4F15
:1026E0004F4F5F4F0895F6F79095809570956195DF
:1026F0007F4F8F4F9F4F0895AA1BBB1B51E107C00F
:10270000AA1FBB1FA617B70710F0A61BB70B881F81
:10271000991F5A95A9F780959095BC01CD01089510
:10272000EE0FFF1F0590F491E02D09942F923F9238
:102730004F925F926F927F928F929F92AF92BF92D1
:10274000CF92DF92EF92FF920F931F93CF93DF937D
:10275000CDB7DEB7CA1BDB0B0FB6F894DEBF0FBEDA
:10276000CDBF09942A88398848885F846E847D8427
:102770008C849B84AA84B984C884DF80EE80FD8029
:102780000C811B81AA81B981CE0FD11D0FB6F8949F
:10279000DEBF0FBECDBFED01089513E0CAE8D3E060
:1027A00004C0FE010E9492132296CC38D107C9F7CB
:0427B000F894FFCFCB
:1027B4005061747465726E20446F6E650053746169
:1027C40072746564204164766572746973696E67B6
:1027D40000436F6E6E656374696F6E204174746537
:1027E4006D7074202300436F6E6E656374696F6E41
:1027F400204661696C656400436F6E6E6563746541
:10280400640072616E646F6D5F62797465203D204F
:1028140000636865636B73756D5F73656E64203DFB
:10282400200052656365697665643A2000446174EA
:10283400612072656365697665642069506F642EF2
:102844002020436865636B73756D203D20004368E9
:1028540065636B73756D7320646F6E2774206D618F
:1028640074636800436865636B73756D73206D6191
:10287400746368000100000002C00002C0D102C0FD
:102884001C00E100000000000001010000000094B1
:1028940006E80C7A065906570746070000000010A0
:1028A4000AE80CAF09D609BD09380A3C0A00000041
:1028B400003F0CE80CD50B060CE60B2F0C000000B7
:0C28C40000E611E80C88124512381200E2
:00000001FF
