:100000000C94C5010C94ED010C94ED010C94ED01E0
:100010000C94ED010C94ED010C94ED010C94ED01A8
:100020000C94ED010C9460030C94200A0C94A70A24
:100030000C94ED010C94ED010C94ED010C94ED0188
:100040000C94ED010C94ED010C94ED010C94ED0178
:100050000C94ED010C94ED010C94ED010C94F00B5B
:100060000C94ED010C94ED010C94ED010C94ED0158
:100070000C94ED010C94ED010C94ED010C94ED0148
:100080000C94ED010C94ED010C94ED010C94ED0138
:100090000C94ED010C94ED010C94ED010C94ED0128
:1000A0000C94ED010C94ED010C94ED0100C20100E3
:1000B0000100110011000C0000E100000500230008
:1000C0002300210000960000190039003900360095
:1000D000127A00001F0046004600440080700000B5
:1000E00022004D004D004A00004B00003600750014
:1000F00075007200403800004A009C009C00990086
:10010000802500007200EC00EC00E900C012000045
:10011000E900DA01DA01D70160090000D701B6036E
:10012000B603B303B0040000B3036E076E076B079A
:10013000580200006E07DC0EDC0ED80E2C01000009
:10014000DC0EC11DC11DBE1D0000000024002700E3
:100150002A002D00300000000000250028002B00A0
:100160002E003100000000002300260029002C0092
:100170002F00040404040403040502020202040321
:100180000202020206060606060604040202020431
:100190000408020110408040102040804080080286
:1001A0000401804020100201108010204040000017
:1001B000000200080E0000030401000B0000000014
:1001C0000000000000000000000000000706050419
:1001D0000100080A0B0C0D09080B000202020100C5
:1001E000090400000102020000052400100105249A
:1001F000010101042402060524060001070581030C
:1002000010004009040100020A0000000705020274
:100210004000000705830240000004030904220394
:10022000550053004200200049004F0020004200CA
:100230006F00610072006400200020002000200098
:10024000180355006E006B006E006F0077006E00A3
:1002500020002000200020001201000200000040C9
:10026000501DA46000010102000112010002020001
:100270000040501DA46000010102000100C1808106
:10028000C105010902A1010901A1008501050919A2
:10029000012903150025019503750181029501755A
:1002A00005810305010930093109381581257F755C
:1002B0000895038106C0C005010906A10185020554
:1002C0000719E029E71500250175019508810295B8
:1002D0000175088103950675081500256505071940
:1002E0000029658100C00904020001030000000923
:1002F000210101000122650007058403400001007F
:10030000000000000000002A2B2800000000000070
:100310000000000000000000000000000000002CB1
:100320009EB4A0A1A2A434A6A7A5AE362D37382727
:100330001E1F20212223242526B333B62EB7B89FB3
:100340008485868788898A8B8C8D8E8F90919293F5
:100350009495969798999A9B9C9D2F3130A3AD3593
:100360000405060708090A0B0C0D0E0F10111213D5
:100370001415161718191A1B1C1DAFB1B0B50000C3
:100380000E023F075A09210D070211241FBECFEFAD
:10039000DAE0DEBFCDBF11E0A0E0B1E0E8ECFCE1C7
:1003A00002C005900D92A036B107D9F713E0A0E680
:1003B000B1E001C01D92A233B107E1F713E0C8E834
:1003C000D3E004C02297FE010E94530EC038D1072B
:1003D000C9F70E9418080C94570E0C940000813045
:1003E000910559F46F5F7F4F89F480E691E06BE0EF
:1003F0004CE020E00E9406060895892B39F46F5FD7
:100400007F4F21F480E691E00E948D04089580E002
:1004100090E06FEF7FEF0E94EF01089581E090E0A0
:100420006FEF7FEF0E94EF010895EF92FF920F931D
:100430001F93CF93DF937C01C0E0D0E007C080E63C
:1004400091E00E949604F8018083219680E691E075
:100450000E94B70487010C0F1D1F892B81F7F8013B
:100460001082DF91CF911F910F91FF90EF9008952F
:10047000DF93CF93CDB7DEB762970FB6F894DEBFA8
:100480000FBECDBF80E691E00E94B704892B51F0EA
:100490008CE791E00E94150285E093E06CE771E043
:1004A0000E94910885E093E00E94F506892B09F4EB
:1004B0004FC085E093E00E941C0781339105B9F09D
:1004C0008433910599F1C09709F042C0DE0111967D
:1004D000EAE2F1E083E001900D928150E1F780E6DD
:1004E00091E0BE016F5F7F4F43E050E02FC083E09B
:1004F0008C8380EC8D8387EB8E8380917C028F834D
:1005000080E691E0BE016C5F7F4F44E050E00E94C6
:100510002B0880917C02813019F410927C0218C063
:100520008823B1F481E080937C0212C0DE0118962A
:10053000EFE1F1E08BE001900D928150E1F780E670
:1005400091E0BE01685F7F4F4BE050E00E942B08B6
:1005500062960FB6F894DEBF0FBECDBFCF91DF918C
:100560000895DF93CF9300D00F92CDB7DEB785E02B
:1005700093E060E071EE0E94F40685E093E00E9453
:1005800056078823D1F385E093E060E071E00E9494
:10059000940880E691E040E051EE60E070E00E9457
:1005A0008A03DE011196EDE2F1E083E001900D9205
:1005B0008150E1F780E691E0BE016F5F7F4F43E03D
:1005C00050E00E942B080F900F900F90CF91DF9179
:1005D00008951F93CF93DF93DC015B968C915B971B
:1005E0001E96ED91FC911F971D969C911D9781FF82
:1005F00005C08081892309F45FC004C080818923FC
:1006000009F05AC053968D919C91549720E0019720
:100610002FEF8F3F9207D9F75596CD91DC915697E2
:100620001E96ED91FC911F971D967C911D9731E0D0
:1006300060E040E050E010E0CE01212F01972FEF65
:100640008F3F9207D9F78081872311F0632B03C076
:10065000832F80956823330F4F5F5F4F48305105DC
:1006600059F757968D919C91589720E001972FEF5D
:100670008F3F9207D9F78091BF022091C00290E08E
:1006800001968F73907030E08217930779F0E091B4
:10069000BF02F0E0E158FD4F60838091BF0290E01F
:1006A00001968F7390708093BF0206C05B968C9109
:1006B0005B9781605B968C93DF91CF911F9108953A
:1006C0001F920F920FB60F9211242F933F934F93C7
:1006D0005F936F937F938F939F93AF93BF93EF93AA
:1006E000FF9380917D0290917E02009711F00E940D
:1006F000E902FF91EF91BF91AF919F918F917F910F
:100700006F915F914F913F912F910F900FBE0F907E
:100710001F901895CF92DF92EF92FF920F931F9345
:10072000CF93DF93EC017A018B011A8E198E188E0C
:100730001F8A1E8A1D8A1C8A1B8A20E030E06901FC
:10074000CC0CDD1CC20ED31EB601660F771F660FE0
:10075000771FAB0144555F4FFA0185919591A591A3
:10076000B4918E159F05A007B107E9F4FB01E05590
:10077000FF4F859194919C8B8B8BFB01EE54FF4F27
:10078000859194919E8B8D8BFB01EC54FF4F85914D
:100790009491988F8F8BFB01EA54FF4F8591949130
:1007A0009A8F898F06C02F5F3F4F2D30310509F09A
:1007B000C6CF8F89988D892B09F457C09C85892FC6
:1007C0008850843038F08650843020F09A5193302D
:1007D00008F043C0809168008160809368002C8598
:1007E000922F9850943090F0822F8E50843070F079
:1007F0008C50833008F451C0A0E0B0E0833018F092
:10080000E0E0F0E007C0EBE6F0E004C0EBE6F0E08B
:10081000ABE6B0E04081943020F430E0245030402A
:1008200013C02E3011F488E016C02F3011F482E08E
:1008300012C0203111F484E00EC0213111F481E0A6
:100840000AC030E02651304081E090E002C0880FBD
:10085000991F2A95E2F7842B8C93898D9A8D20E03D
:1008600001972FEF8F3F9207D9F780917D029091EA
:100870007E028C179D07A1F08B8D8E7F8B8F9FB78B
:10088000F8941092BF028091BF028093C002D0936F
:100890007E02C0937D029FBF03C0ABE6B0E0AECF47
:1008A000DF91CF911F910F91FF90EF90DF90CF904C
:1008B0000895FC012485922F9850943038F0822FAF
:1008C0008E50843018F08C50833030F540916B009E
:1008D000943020F430E02450304013C02E3011F416
:1008E00087EF17C02F3011F48DEF13C0203111F4B2
:1008F0008BEF0FC0213111F48EEF0BC030E0265189
:10090000304081E090E002C0880F991F2A95E2F7FD
:100910008095842380936B000895FC0184E391E02B
:1009200091838083CF010E945904089520917D0214
:1009300030917E022817390731F49091C0028091DE
:10094000BF02981719F42FEF3FEF0FC0E091C002DC
:10095000F0E0E158FD4F20818091C00290E00196C7
:100960008F7390708093C00230E0C9010895209188
:100970007D0230917E022817390719F020E030E01F
:100980000EC08091BF022091C00290E0805C9F4F1A
:10099000821B910960E470E00E942A0E9C01C9014B
:1009A00008950F931F93DC0159968D919C915A974E
:1009B000892B49F481E090E013969C938E931297D3
:1009C00020E030E097C00FB7F8945B968C915B976E
:1009D0005196ED91FC91529750962C91509781FF32
:1009E0008DC08081822B808359968D919C915A97DE
:1009F000059620E001972FEF8F3F9207D9F75B967E
:100A00008C915B9781FF35C031E040E050E070E0B1
:100A100010E0832F90E0862397235196ED91FC916F
:100A2000529750962C915097892B29F080812095D0
:100A30002823208303C08081822B808359968D9147
:100A40009C915A97212F01972FEF8F3F9207D9F74B
:100A5000330F4F5F5F4F48305105D9F65196ED91F6
:100A6000FC915297908150968C9150978095892354
:100A700033C031E040E050E070E010E0832F90E0C0
:100A8000862397235196ED91FC91529750962C9185
:100A90005097892B21F08081822B808304C0808134
:100AA00020952823208359968D919C915A97212F28
:100AB00001972FEF8F3F9207D9F7330F4F5F5F4FAB
:100AC00048305105D9F65196ED91FC9152978081AD
:100AD00050969C915097892B80830FBF59968D918A
:100AE0009C915A9720E001972FEF8F3F9207D9F7FB
:100AF00021E030E0C9011F910F9108958081209578
:100B00002823208371CF20917D0230917E02281707
:100B1000390749F49FB7F8941092BF028091BF0241
:100B20008093C0029FBF089520917D0230917E0284
:100B30002817390731F49091C0028091BF029817AD
:100B400019F42FEF3FEF0AC0E091C002F0E0E15846
:100B5000FD4F8081282F332727FD3095C901089547
:100B60001F93CF93DF93EC01162F862F60E00E9436
:100B700034068B8D81FD04C0812F61E00E94C10687
:100B80001C87212F30E0C90180579E4FFC018491C2
:100B90008D872E583E4FF9016491E62FF0E0EE0F5D
:100BA000FF1FEC59FE4F859194919F878E87DF91AF
:100BB000CF911F910895FF920F931F938C01F62EF2
:100BC000862F61E00E9434068F2D61E00E94C106ED
:100BD0008F2D90E0FC01E057FE4FE491D801509634
:100BE000EC9350978E589E4FFC016491E62FF0E0F5
:100BF000EE0FFF1FEA5AFE4F8591949152969C93F7
:100C00008E9351971F910F91FF900895FF920F932C
:100C10001F938C01F62EFC011382128288EE93E062
:100C2000A0E0B0E084839583A683B78384E391E05A
:100C300091838083148A138A168A158A108E178AE4
:100C4000128E118E838D2170220F8C7F822B838FC9
:100C5000C801642F0E94DB05C8016F2D0E94B005FA
:100C60001F910F91FF900895CF93DF93482F50E08D
:100C7000CA0180579E4FFC0134914E585E4FFA01D5
:100C80008491882369F190E0880F991FFC01E85B4B
:100C9000FE4FA591B491FC01EA5AFE4FC591D49143
:100CA000662351F42FB7F8948C91932F9095892354
:100CB0008C93888189230BC0623061F42FB7F8943C
:100CC0008C91932F909589238C938881832B888393
:100CD0002FBF06C09FB7F8948C91832B8C939FBF36
:100CE000DF91CF910895883071F1893068F48230B6
:100CF00031F1833020F4813009F042C01DC08330CF
:100D000089F08430E9F512C08B3059F18C3028F429
:100D10008930E9F08A30A1F51EC08C3031F18E3077
:100D200079F529C0809180008F7703C08091800081
:100D30008F7D80938000089584B58F7702C084B53D
:100D40008F7D84BD0895809190008F7707C080913A
:100D500090008F7D03C080919000877F80939000EA
:100D600008958091C0008F7703C08091C0008F7D6F
:100D70008093C00008958091C200877F8093C20055
:100D80000895FF920F931F93F62E482F50E0CA014B
:100D900082559E4FFC012491CA0180579E4FFC0151
:100DA00014914E585E4FFA0104910023C9F022239A
:100DB00019F0822F0E947306E02FF0E0EE0FFF1F64
:100DC000EA5AFE4FA591B4919FB7F894FF2021F401
:100DD0008C911095812302C08C91812B8C939FBFA5
:100DE0001F910F91FF900895089520910103309174
:100DF00002038091030390910403281B390B2F7386
:100E00003070C9010895209101033091020380914F
:100E10000303909104032817390719F42FEF3FEFCC
:100E200009C0E0910303F0910403EF53FD4F80816B
:100E3000282F30E0C9010895209101033091020369
:100E400080910303909104032817390719F42FEFB9
:100E50003FEF13C0E0910303F0910403EF53FD4F04
:100E60002081809103039091040301968F73907009
:100E7000909304038093030330E0C9010895109216
:100E800008031092070388EE93E0A0E0B0E080939F
:100E9000090390930A03A0930B03B0930C0384E41B
:100EA00091E0909306038093050308951F9310919A
:100EB0001C016AE070E080E090E00E94380C1111A3
:100EC00011E0812F1F9108950F931F93DF93CF930C
:100ED0000F92CDB7DEB78C01698380911C01882306
:100EE00069F083E0BE016F5F7F4F41E050E00E94F8
:100EF0007B091816190614F49C0107C081E090E0E4
:100F0000F8019383828320E030E0C9010F90CF91F4
:100F1000DF911F910F91089583E00E945009089579
:100F2000CF93DF9312C082E00E94DB082FEF8F3F48
:100F30009207C9F0E0910103F0910203EF53FD4FD6
:100F40008083D0930203C0930103C0910103D09129
:100F500002032196CF73D070809103039091040314
:100F6000C817D90701F7DF91CF910895FC0180815F
:100F70008E5F808380E868ED71E042E450E00E947B
:100F8000F4080895FC0181819081913A59F48132ED
:100F900009F04CC080E065E171E047E050E00E945C
:100FA000F40842C0913209F041C0803239F485E141
:100FB00091E067E070E00E94380936C0823209F0A3
:100FC00035C0828180931C0180911501909116019A
:100FD000A0911701B0911801805B9440A040B040EF
:100FE00019F580911C0180FD12C087E797E7909367
:100FF0000108809300082BE088E190E00FB6F89498
:10100000A895809360000FBE209360000DC088E11A
:101010000FB6F89480936000109260000FBEA89500
:10102000109201081092000881E0089580E0089570
:10103000CF93DF930E94910C8BE193E00E945B09B8
:101040000E94B102C0E0D0E00E9438022097E1F394
:101050000E940000F9CFCF92DF92EF92FF920F93A0
:101060001F93CF93DF937C016B018A01C0E0D0E036
:101070000FC0D6016D916D01D701ED91FC910190EA
:10108000F081E02DC7010995C80FD91F015010400C
:101090000115110571F7CE01DF91CF911F910F91CD
:1010A000FF90EF90DF90CF900895EF92FF920F9313
:1010B0001F938C01DC01ED91FC910190F081E02DFA
:1010C0006DE009957C01D801ED91FC910190F081D2
:1010D000E02DC8016AE009959C012E0D3F1DC90154
:1010E0001F910F91FF90EF900895CF93DF93EC0144
:1010F0006115710519F420E030E00FC0DB010D909F
:101100000020E9F71197A61BB70BE881F98102804F
:10111000F381E02DAD0109959C01C901DF91CF91CB
:1011200008950E9475080895EF92FF920F931F9300
:101130007C010E9475088C01C7010E945508080FA8
:10114000191FC8011F910F91FF90EF900895282F4C
:10115000809115038823C1F057FF1AC015C0289A43
:10116000909314038091F1008193E217F307B9F78C
:101170004115510539F08091F200882319F48BE66E
:101180008093E800AFBF02C04FEF5FEFCA01089540
:10119000AFB7F89427702093E9008091F200282FD0
:1011A00030E0241735070CF4A901FB019B01240F43
:1011B000311D94E6DACFDF93CF930F92CDB7DEB730
:1011C000BE016F5F7F4F41E050E00E94A70801978A
:1011D00019F02FEF3FEF03C08981282F30E0C901BC
:1011E0000F90CF91DF910895FF920F931F93F82EE8
:1011F000142F052F4091180350911903212F302FE0
:10120000C901DC01FB016EEF29C0F7FE02C0949119
:1012100001C09081209116033091170324173507E0
:10122000ACF48091E8008570E1F38091E80082FFE2
:1012300003C02FEF3FEF17C09093F100C901019653
:101240008F739070892B11F46093E8002F5F3F4FEC
:101250003093170320931603119731961097A9F630
:10126000812F902F9C01C9011F910F91FF9008952C
:101270009C018091E80082FFFCCFF901260F311D0F
:1012800003C08091F1008193E217F307D1F7289A08
:1012900084E6809314038BEF8093E800CB010895DC
:1012A0008093E9008091F200882319F08AE380930B
:1012B000E800089508951092150381E08093D70007
:1012C00080EA8093D80082E189BD09B400FEFDCF99
:1012D00061E070E080E090E00E94380C80E980934B
:1012E000D8008CE08093E2001092E000559A209A9A
:1012F0005D98289808955F926F927F928F929F9247
:10130000AF92BF92CF92DF92EF92FF920F931F9313
:10131000CF93DF93E82E842E752E809115038823BA
:1013200071F18B01242F352FC901EC017AEFF72ED3
:1013300067E0962E9E2050E4552E8E2D90E040E2E0
:10134000A42EB12CA822B9223AE3632E20E4C22EA7
:10135000D12CC822D92258C09FB7F8949092E900A6
:101360008091E80085FD02C020E004C08091F20079
:10137000252D281B9FBF222361F4FA9419F42FEF27
:101380003FEF4DC061E070E080E090E00E94380CDB
:101390003BC0822F90E0C817D9070CF42C2FC21B3A
:1013A000D1094FB7F8949092E900A114B10421F447
:1013B00006C01092F10021502223D9F719C0E7FC92
:1013C00003C0F801922F10C0C801322F06C0FC01E3
:1013D0000196E491E093F10031503323C1F706C048
:1013E00081918093F10091509923D1F7020F111D43
:1013F0008091E80085FF05C0209729F4C114D1042D
:1014000011F06092E8004FBF209709F0A5CF5D9AD8
:1014100084E680931303282D372DC9019C01C9014F
:10142000DF91CF911F910F91FF90EF90DF90CF90C0
:10143000BF90AF909F908F907F906F905F90089536
:101440001F920F920FB60F9211242F933F934F9339
:101450005F936F937F938F939F93AF93BF93EF931C
:10146000FF938091E1001092E100982F83FF0FC05D
:101470001092E90081E08093EB001092EC0082E38F
:101480008093ED001092150388E08093F00092FFA6
:1014900034C083E08093E9008091F200882319F042
:1014A0008AE38093E8008FB7F89492E09093E90084
:1014B0009091F2008FBF992321F085E093E00E9484
:1014C000900780911303882351F08091130381507A
:1014D0008093130380911303882309F45D9880910E
:1014E0001403882351F080911403815080931403D6
:1014F00080911403882309F42898FF91EF91BF91FC
:10150000AF919F918F917F916F915F914F913F919B
:101510002F910F900FBE0F901F9018950F931F9350
:10152000DF93CF930F92CDB7DEB719828E010F5F95
:101530001F4FC8010E94B607C8010E941E0E898174
:1015400090E00F90CF91DF911F910F9108951F921E
:101550000F920FB60F921124EF92FF921F932F93C9
:101560003F934F935F936F937F938F939F93AF932B
:10157000BF93EF93FF93DF93CF93CDB7DEB7619720
:10158000DEBFCDBF1092E9008091E80083FF0FC15C
:10159000FE0131969E01275F3F4F03C08091F1000D
:1015A0008193E217F307D1F7289A84E68093140316
:1015B00082EF8093E800998197FF05C08091E80051
:1015C00080FFFCCF03C08EEF8093E800292F30E02E
:1015D000C90180769070892B09F0C2C08A81882366
:1015E00029F41092F1001092F100D6C0813009F474
:1015F000D3C0833009F4D0C0853049F48091E8002D
:1016000080FFFCCF8B8180688093E300C5C086306B
:1016100009F07CC01C81EF80F8841230C1F5109273
:10162000E9001092170310921603109219031092FA
:1016300018030E948E0A99E0FE013996DF01292FD6
:101640001D922A95E9F799871A8791E09E8790E87D
:10165000988B9AEF998B2091160330911703275F8F
:101660003F4F3C872B878D871092E900109217031C
:1016700010921603F0921903E092180380E0BF0164
:1016800049E050E00E94F4080E948E0A85C0109242
:10169000E9001092170310921603F0921903E092DA
:1016A0001803123241F482E290E00E94160E892B58
:1016B00009F476C071C0113079F488E0E816F104BD
:1016C00019F481E080931A0380911A03882309F0AA
:1016D0006BC0E8E5F2E013C0133009F061C08B8104
:1016E000882319F4EAE1F2E00AC0823019F4EEE14D
:1016F000F2E005C0813009F053C0E0E4F2E044912B
:1017000080E8BF0150E00E94F40846C0873009F429
:1017100047C0883021F481E08093F1003DC08930DA
:10172000D9F523703070232BD9F5EDE7F2E091E085
:1017300031E026E39093E9003093EB0084918093AD
:10174000EC002093ED009F5F3196953099F78EE77E
:101750008093EA001092EA008B81809315031CC0ED
:101760008F8198851092E90010921703109216034A
:1017700090931903809318038D81882329F4CE0157
:1017800001960E94C20706C0823051F4CE01019634
:101790000E94E70C882321F08EEF8093E80007C0B9
:1017A00081E28093EB0003C0EAE6F2E0A8CF619605
:1017B000DEBFCDBFCF91DF91FF91EF91BF91AF9190
:1017C0009F918F917F916F915F914F913F912F9159
:1017D0001F91FF90EF900F900FBE0F901F901895E4
:1017E0001F920F920FB60F9211242F933F938F9356
:1017F0009F93AF93BF938091200390912103A09179
:101800002203B0912303309124030196A11DB11D41
:10181000232F2D5F2D3720F02D570196A11DB11DCF
:10182000209324038093200390932103A093220309
:10183000B093230380911C0390911D03A0911E037C
:10184000B0911F030196A11DB11D80931C039093BD
:101850001D03A0931E03B0931F03BF91AF919F91EF
:101860008F913F912F910F900FBE0F901F90189561
:101870009B01AC017FB7F89480911C0390911D03EC
:10188000A0911E03B0911F0366B5A89B05C06F3FD2
:1018900019F00196A11DB11D7FBFBA2FA92F982F56
:1018A0008827860F911DA11DB11D62E0880F991F29
:1018B000AA1FBB1F6A95D1F7BC012DC0FFB7F894D2
:1018C00080911C0390911D03A0911E03B0911F03F2
:1018D000E6B5A89B05C0EF3F19F00196A11DB11D0B
:1018E000FFBFBA2FA92F982F88278E0F911DA11DFA
:1018F000B11DE2E0880F991FAA1FBB1FEA95D1F71F
:10190000861B970B885E9340C8F2215030404040C0
:10191000504068517C4F211531054105510571F644
:101920000895789484B5826084BD84B5816084BD57
:1019300085B5826085BD85B5816085BDEEE6F0E048
:10194000808181608083E1E8F0E0108280818260A4
:101950008083808181608083E0E8F0E08081816025
:101960008083E1E9F0E08081826080838081816012
:101970008083E0E9F0E0808181608083E1ECF0E049
:1019800080818460808380818260808380818160A7
:101990008083E3ECF0E0808181608083E0ECF0E024
:1019A000808182608083E2ECF0E0808181608083CE
:1019B000EAE7F0E0808184608083808182608083B8
:1019C0008081816080838081806880830895FC01AC
:1019D00091818081813A31F4913089F080E09330B7
:1019E00089F40DC0813269F49B3021F482818093A7
:1019F0001D0105C09A3029F4828180931E0181E087
:101A0000089580E00895EF92FF920F931F938C0149
:101A1000E62EDC01ED91FC910480F581E02D099525
:101A2000F82ED801ED91FC910680F781E02DC801D8
:101A30006E2D09958F2D90E01F910F91FF90EF90E3
:101A4000089510922503109229031092280386E529
:101A500091E090932703809326030895EF92FF92DD
:101A60000F931F93DF93CF930F92CDB7DEB7898388
:101A70008B017A0184E0BE016F5F7F4F41E050E04F
:101A80000E947B0984E4B801A7010E947B090F90A2
:101A9000CF91DF911F910F91FF90EF90089582E019
:101AA00048E050E00E942E0D0895FC011682178236
:101AB000108611861286138614823496BF010E9406
:101AC0004F0D0895DC01683810F0685829C0E62FE2
:101AD000F0E067FF13C0E058F04081E090E002C002
:101AE000880F991FEA95E2F7809514962C91149728
:101AF000282314962C93149760E012C0E150FD4FF8
:101B00006491662319F420E030E01DC067FF08C02F
:101B100014968C9114978D7F14968C9314976F77ED
:101B2000FD0190E0662321F08681861709F4168274
:101B30009F5F31969630B1F7CD011496BD010E949A
:101B40004F0D21E030E0C9010895CF93DF93DC0110
:101B5000683810F0685825C0E62FF0E067FF12C023
:101B6000E058F04081E090E002C0880F991FEA95AC
:101B7000E2F714962C911497282B14962C93149713
:101B800060E00FC0E150FD4F64916623D9F167FF1B
:101B900008C014968C911497826014968C931497B5
:101BA0006F7716968C9116978617A9F117968C91D8
:101BB0001797861781F118968C911897861759F107
:101BC00019968C911997861731F11A968C911A975C
:101BD000861709F11B968C911B978617E1F0ED0192
:101BE000E0E0F0E09E2F8E81882321F4EA0FFB1FB6
:101BF000668306C09F5F31962196E630F10591F726
:101C0000963049F481E090E013969C938E9312975E
:101C100020E030E007C0CD011496BD010E944F0DB9
:101C200021E030E0C901DF91CF91089580E861E8BB
:101C300072E045E650E00E94F4080895FC018081BE
:101C40008F5F808380E866EE72E049E150E00E9499
:101C5000F408089597FB092E07260AD077FD04D0D3
:101C60000CD006D000201AF4709561957F4F08952E
:101C7000F6F7909581959F4F0895AA1BBB1B51E1E4
:101C800007C0AA1FBB1FA617B70710F0A61BB70BEC
:101C9000881F991F5A95A9F780959095BC01CD0191
:101CA0000895EE0FFF1F0590F491E02D099413E0C5
:101CB000C8E8D3E004C0FE010E94530E2296CA3841
:081CC000D107C9F7F894FFCF2A
:101CC800424C456475696E6F2053657269616C207A
:101CD800546573740000E100000000000001010A6F
:101CE800C0CD4A45574455494E4F02C00002C00076
:101CF80000000000D1042B08B7049604940583055E
:101D08000000000064072B08F5061C0703078C0772
:101D1800900700000000030D2B08A50D620D550D5E
:00000001FF
