:100000000C947B040C948B0B0C94B80B0C94A304F1
:100010000C94A3040C94A3040C94A3040C94A304C4
:100020000C94A3040C94A3040C94A3040C94A304B4
:100030000C94A3040C94A3040C94A3040C94A304A4
:100040000C94E50B0C94A3040C94C30D0C94110EAA
:100050000C94A3040C94A3040C94A3040C94A30484
:100060000C94A3040C94A3040007060000030241AF
:10007000D7000000000000000000000000000000A9
:10008000000000000000000000001F06100000003B
:10009000000000000B00210101000006000010001C
:1000A00000000000000000000020001F06101C13CC
:1000B000020000000000000000000000000000003E
:1000C00000000000000048039001FF001F061038E8
:1000D000FFFF02580A050000000000000050000069
:1000E00000000000000000000000000000050610F5
:1000F00054000000000000000000000000000000AC
:1001000000000000000000000000000000001F06CA
:100110002000040402020001280001001804040564
:100120000500022803010E0300002A041414001F16
:1001300006201C0800032A0001424C456475696EC4
:100140006F6D692E636F6D000000000000040400F5
:100150001F06203805050004280301020500012AB6
:100160000604030200052A0101000004040505003D
:10017000001F06205406280301020700042A060473
:10018000090800072A0401FFFFFFFF0000FFFF042A
:1001900004001F0620700202000828000101180454
:1001A00004101000092800012D6AD1C032005B0242
:1001B0001D68001F06208C12A301F06B8C04041331
:1001C00013000A2803013E0B002D6AD1C032005BE8
:1001D000021D68001F0620A812A30DD06B8C761498
:1001E0000605000BD00D02000000000046140302BB
:1001F000000C2902001F0620C40100000404101096
:10020000000D2800012D6AD1C032005B021D68126A
:10021000A3D11E6B8C001F0620E004041313000EF4
:100220002803013E0F002D6AD1C032005B021D6819
:1002300012A351256B8C001F0620FC7614050400C8
:100240000F2551020000000046140302001029028D
:1002500001000004041010001F06211800112800DE
:10026000012D6AD1C032005B021D6812A37ADA6BDD
:100270008C04041313001228001F06213403010C00
:1002800013002D6AD1C032005B021D6812A3CDABF2
:100290006B8C441014000013AB001F062150CD02DC
:1002A000000000000000000000000000000000004E
:1002B00000000000040413130014001F06216C2822
:1002C00003013015002D6AD1C032005B021D681297
:1002D000A310106B8C340014000015001F06218839
:1002E00010100200000000000000000000000000EC
:1002F000000000000000004614030200001F062159
:10030000A41629020100000404101000172800019F
:100310002D6AD1C032005B021D6812A341001F0686
:1003200021C0316B8C0404131300182803013E19FB
:10033000002D6AD1C032005B021D6812A318001F95
:100340000621DC166B8C74141400001916180200B8
:10035000000000000000000000000000000000009D
:100360001F0621F80000000046140302001A2902AB
:1003700001000006043A39001B2901015468652078
:10038000001F0622146E6F74696669636174696F79
:100390006E20617474726962757465732C20696E65
:1003A00063001F0622306C7564696E67206D65738B
:1003B0007361676520616E64207469746C652E04D6
:1003C0000410001F06224C10001C2800012D6AD1C9
:1003D000C032005B021D6812A3EBB16B8C040413E6
:1003E00013001D001F0622682803010E1E002D6A3F
:1003F000D1C032005B021D6812A3D0D16B8C4614B1
:100400000201001E001F062284D1D002000604262D
:1004100025001F29010154686520646576696365BC
:100420002049442067001F0622A06976656E20746B
:100430006F2074686520424C4520736C6176652E90
:10044000040413130020001F0622BC2803010C2102
:10045000002D6AD1C032005B021D6812A378576B71
:100460008C441014000021001F0622D85778020087
:10047000000000000000000000000000000000007C
:100480000000000604363500001F0622F422290170
:1004900001546865206D65737361676520746F2012
:1004A00062652073656E742066001F062310726FEC
:1004B0006D20616E6F7468657220424C4520736CCC
:1004C00061766520646576696365001F06232C2EBE
:1004D0000404131300232803013024002D6AD1C023
:1004E00032005B021D6812A34B456B001F062348B8
:1004F0008C340014000024454B0200000000000072
:10050000000000000000000000000000001F0623A3
:1005100064000046140302002529020100000604BD
:100520002A290026290101546865206461001F06FC
:100530002380746120746F2062652073656E74205F
:10054000746F20616E6F7468657220424C45001FA5
:1005500006239C20736C6176652E0404101000271E
:100560002800012D6AD1C032005B021D6812A30071
:100570001F0623B825116B8C0404131300282803CD
:10058000013E29002D6AD1C032005B021D6812A312
:10059000001F0623D406986B8C7614050400299856
:1005A00006020000000046140302002A290201008E
:1005B00000001F0623F006043A39002B29010154DC
:1005C000686520737065656420616E64206F726970
:1005D000656E001F06240C746174696F6E20696E6D
:1005E0002077686963682074686520766568696348
:1005F0006C6520001F0624286973206D6F76696E74
:10060000672E04041010002C2800012D6AD1C0327E
:10061000005B021D001F0624446812A313206B8C8C
:1006200004040202002D2800010A18040405050034
:100630002E28030102001F0624602F00242A06042E
:100640000B0A002F2A2401424C456475696E6F0025
:10065000000604080700001F06247C302904011945
:100660000000000100000404050500312803010218
:100670003200262A060405001F0624980400322AA8
:100680002601312E30000604080700332904011921
:100690000000000100000404001F0624B40505004A
:1006A00034280301023500292A06040B0A00352AE2
:1006B00029014B7974656C6162001F0624D07300B8
:1006C0000006040807003629040119000000010093
:1006D00000040405050037280301001F0624EC026E
:1006E0003800282A04040A0600382A2801526576B0
:1006F000312E300000000006040807001F06250800
:10070000003929040119000000010000040402025C
:10071000003A28000104180404050500001F0625FE
:10072000243B280301123C00072A16040201003C66
:100730002A07010046140302003D290201001F069A
:100740002540000006042322003E2901015468656B
:10075000207472616E736D697373696F6E2000151A
:1007600006255C7369676E616C20737472656E67D1
:1007700074682E200000000000000000000000004F
:100780001F0640002A000100800400030000D00D75
:1007900002048E04000B000C255102048E04000F8D
:1007A000001F06401C0010ABCD020408040013001B
:1007B0000010100200060400150016161802048E20
:1007C00004001F0640380019001AD1D00204880422
:1007D000001E000057780204080400210000454B69
:1007E0000200001D0640540604002400259806025D
:1007F000048E040029002A2A0701000204003C009C
:100800003D000000130650002D6AD1C032005B028B
:100810001D6812A300006B8C0000000000000000A7
:1008200000000000001F0660000000000000000043
:1008300000000000000000000000000000000000B8
:100840000000000000000806601C0000000000001E
:100850000000000000000000000000000000000098
:10086000000000000000000606F00003C60C0000B7
:100870000000000000000000000000000000000078
:1008800000000000000000436D642051756575652F
:100890002046756C6C00002C200000000000240035
:1008A00027002A0000000000250028002B0000007F
:1008B00000002300260029000404040404040404A6
:1008C00002020202020203030303030301020408FB
:1008D00010204080010204081020010204081020AA
:1008E00000000007000201000003040600000000F1
:1008F000000000007D0F11241FBECFEFD8E0DEBF47
:10090000CDBF11E0A0E0B1E0E0E4F3E202C0059069
:100910000D92AA38B107D9F715E0AAE8B1E001C0F5
:100920001D92A635B107E1F718E0C6EFD8E004C084
:100930002297FE010E949A11C43FD107C9F70E9475
:10094000D30F0C949E110C940000FB01DC0102C03B
:1009500005900D9241505040D8F70895FB01DC01FD
:1009600002C001900D9241505040D8F7089581E0A7
:100970000E94780B81E060EE79E040E050E00E9458
:10098000550B83B7817F83BF83B7816083BFE4E664
:10099000F0E08081816080838081806280838081BB
:1009A0008860808380818064808380818068808388
:1009B00083B7816083BF889583B78E7F83BFE4E66A
:1009C000F0E080818071808308951F93DF93CF933F
:1009D000CDB7DEB72E970FB6F894DEBF0FBECDBFF2
:1009E00084E395E00E94040F182F592F84E395E0CB
:1009F0006DE871E0412F0E94331180918D01803CA0
:100A000009F058C080918E01873B59F1883B40F432
:100A10008C3101F1813709F445C0882351F06EC053
:100A20008D3C09F442C0813D61F08B3C09F066C009
:100A30001EC082EA91E00E940F0B81E080938A0140
:100A40005DC00E94010B86E060E00E946E0D109276
:100A50008A0154C084E395E060918B010E943D0FB0
:100A60004DC086E060918F010E946E0D47C0DE018F
:100A70001196EBE6F1E08EE001900D928150E1F7E6
:100A8000E0918F01F0E0EE0FFF1FEC0FFD1F4181A1
:100A90005281662757FD6095762F84E395E00E948A
:100AA0004C0E2CC00E944A0A29C0125082EA91E0E2
:100AB00061E01FC08A3D11F590918E01923128F4BA
:100AC0009E3058F4892F875006C0963171F09631C8
:100AD000A8F0892F8A51823088F41250892F6FE84C
:100AE00071E0412F0E94580A09C0125082EA91E039
:100AF00066E14FE851E0212F0E94C00A2E960FB602
:100B0000F894DEBF0FBECDBFCF91DF911F91089546
:100B1000EF92FF920F931F93DF93CF93CDB7DEB782
:100B20002D970FB6F894DEBF0FBECDBFFC01EDB61A
:100B3000FEB622812E3080F42C30C8F52630D9F054
:100B4000273020F4243009F0A4C015C0293001F169
:100B50002B3009F09EC01CC02E3109F488C02F3103
:100B600030F4822F8851823008F093C049C020327F
:100B700009F08FC07CC0298383818A8384818B8321
:100B800085818C8384E395E0BE016F5F7F4F0CC04D
:100B90002D8383818E8384818F838581888784E3FD
:100BA00095E0BE016B5F7F4F44E050E070C01DB721
:100BB0000EB780818250482F50E0CA0101966DB770
:100BC0007EB7681B790B0FB6F8947EBF0FBE6DBF62
:100BD0006F5F7F4FADB7BEB711962C93DF0120E05A
:100BE00030E009C02F5F3F4FFB01E20FF31F129669
:100BF0008C91129780831196241735079CF328C097
:100C00001DB70EB780818250482F50E0CA0101966F
:100C10006DB77EB7681B790B0FB6F8947EBF0FBE19
:100C20006DBF6F5F7F4FADB7BEB711962C93DF01DD
:100C300020E030E009C02F5F3F4FFB01E20FF31FC0
:100C400012968C91129780831196241735079CF386
:100C50004F5F5F4F84E395E00E94E20F812F902F5A
:100C60009C010FB6F8943EBF0FBE2DBF12C029875E
:100C700083818A8784818B8785818C8786818D8714
:100C800084E395E0BE01675F7F4F45E050E00E943E
:100C9000E20F0FB6F894FEBE0FBEEDBE2D960FB656
:100CA000F894DEBF0FBECDBFCF91DF911F910F91A2
:100CB000FF90EF9008950F931F93CF93DF93809150
:100CC000C601863809F44CC0873840F4843819F1DD
:100CD0008538F0F5813809F055C010C08A3809F41C
:100CE00056C08B3820F4883809F04CC050C08C387E
:100CF00009F443C08D3809F045C049C08091C7014F
:100D0000823021F0833009F042C030C082EA91E0A5
:100D10000E94A1073CC08091C8018823C1F1C0E0B6
:100D2000D0E005E010E086E0BE010E94CF0CC00FCD
:100D3000D11F209719F0CF3FD10519F410950195D7
:100D40001F4F6EE170E080E090E00E943B0CEBCF23
:100D500086E061E00E946E0D81E080938B0117C0F8
:100D600086E060E00E946E0D10928B0184EB90E0B3
:100D700060E071E00E949F0A0AC085EC91E00E9449
:100D8000880505C080918C01815080938C01DF9192
:100D9000CF911F910F91089510928C0180918A013B
:100DA000882379F082EA91E064EC71E00E94070AFE
:100DB000882339F080918C018F5F80938C010E9491
:100DC0005B0684E395E00E94D30E892B39F00E94E4
:100DD000E50480918C018F5F80938C0180918C0160
:100DE000882311F40E94B704089586E061E00E9410
:100DF0002F0D86E060E00E946E0D84E395E040E0F8
:100E000051EE60E070E00E944C0E88E091E090931B
:100E1000A3018093A20181E28093A40188E690E07F
:100E20009093A6018093A5018FE38093A701089575
:100E3000882319F48CB5806202C08CB58F7D8CBD7F
:100E400008959CB5937F982B9CBD08952CB5382FA1
:100E500033702C7F322B3CBD2DB590E09595879556
:100E60009595879581702E7F822B8DBD08958AE0A0
:100E700061E00E946E0D8AE061E00E942F0D8CB54A
:100E800080618CBD8CB580648CBD8DE061E00E947A
:100E90002F0D8BE061E00E942F0D0895EF92FF92DD
:100EA0000F931F93CF93DF937C01062F81E2489F1E
:100EB000E001112410E021C0D7011396ED91FC91BF
:100EC0001497EC0FFD1F31964491319750E04E5F1F
:100ED0005F4F86EE91E0BF010E94A50486EE91E08F
:100EE0000E942E09A196882339F484E395E067E8EF
:100EF00078E00E944F100FC01F5F1017E8F210E05B
:100F0000C70167E072E00E94070A8823C9F3809155
:100F10000902843819F021E830E00BC090910B02EF
:100F2000892F8150823018F41F5F011749F7292F4C
:100F300030E0C901DF91CF911F910F91FF90EF90A9
:100F400008951F93CF93DF93EC016D81693020F0FA
:100F500028E830E010E00FC040E023C0412F50E00F
:100F600093E0440F551F9A95E1F7CE0168E00E9487
:100F70004E079C011F5F6D81862F8695869586950D
:100F8000181760F3862F90E087709070892B61F0BE
:100F90006770412F50E083E0440F551F8A95E1F7B9
:100FA000CE010E944E079C01C901DF91CF911F9194
:100FB0000895FC01DB0185E080838FE08183119639
:100FC0008C91119783838C91828313968C911397C4
:100FD000858312968C9184830895FC0181E080833F
:100FE0008EE081830895FC0181E0808383E1818329
:100FF0000895DC014E5F4C93425085E111968C932D
:101000001197FB01819112968C9312971396CD0143
:10101000BF0150E00E94AE040895DC014E5F4C9386
:1010200042508DE011968C931197FB01819112969D
:101030008C9312971396CD01BF0150E00E94AE042D
:101040000895CF93DF93FC01E85FFE4F919180817B
:10105000E950F140981711F480E015C081E2989FA3
:10106000D0011124EB01AE0FBF1F81E20D90099258
:101070008150E1F7E85FFE4F808190E00196877034
:101080009070808381E0DF91CF910895DF93CF93BB
:10109000CDB7DEB7A1970FB6F894DEBF0FBECDBFB8
:1010A00085E061E00E942F0D8AE060E00E946E0DF5
:1010B00089E292E0BE016F5F7F4F0E942108882382
:1010C00011F419821A825A815EBD0DB407FEFDCF5C
:1010D0008EB580933E048B818EBD0DB407FEFDCF8F
:1010E0004EB540933F04552349F0252F30E0842F1F
:1010F00090E08217930714F4452F4150842F40321B
:1011000008F08FE1A0E4B4E0FE013496282F30E02F
:101110002A0F3B1F08C080818EBD0DB407FEFDCF96
:101120008EB58D933196A217B307A9F78AE061E0D7
:101130000E946E0D81E060EE79E040E050E00E9498
:10114000550B83B7816083BF909131038091320347
:10115000981721F08AE060E00E946E0D8EE394E023
:10116000A1960FB6F894DEBF0FBECDBFCF91DF9131
:1011700008950F931F93CF93DF93DC01AB01EC0134
:10118000C75FDE4F8881282F30E02F5F3F4F8901F6
:101190000770107021503040FB019181A85FBE4F55
:1011A0008C91A850B140801711F480E020C0F90163
:1011B00085E0EE0FFF1F8A95E1F7E20FF31FEA0FBC
:1011C000FB1F1082288181E2289F900111242F5F4C
:1011D0003F4F2A0F3B1FE92FF0E031964F5F5F4FE3
:1011E000C901BA01AF010E94AE04088381E0DF911A
:1011F000CF911F910F9108950F931F93CF93DF937A
:10120000EC01098184E395E0602F4AE050E00E9400
:10121000F21084E395E060E071E00E94041110E0B8
:10122000FE01E10FF11D84E395E0618140E150E0B2
:101230000E94F21084E395E067E978E00E940C10C8
:101240001F5F011768F784E395E066E978E00E9484
:101250004F10DF91CF911F910F9108951F93CF935E
:10126000DF93EC018981803210F010E017C089E231
:1012700092E0BE010E94B908182F80913D04882396
:1012800049F084E395E063E071E00E940411CE012F
:101290000E94FC088AE060E00E946E0D812FDF91C1
:1012A000CF911F9108950F931F93CF93DF93EC017C
:1012B000F89410913C0400913B04789483E393E00C
:1012C000BE010E9421088823B1F080913D0488234B
:1012D00049F084E395E065E071E00E940411CE01DD
:1012E0000E94FC08812F90E001968770907008178B
:1012F00009F4E99A81E0DF91CF911F910F91089550
:1013000010923F040E94370780E00E94180785E092
:101310000E94260780E00E9421071092310310925C
:101320003203AAE2B2E0FD0110821182B19683E09D
:10133000E233F807C9F710923D0410923B04109273
:101340003C041C9211961C921197919683E0A23353
:10135000B807B9F784E061E00E942F0D83E062E0F6
:101360000E942F0D8AE061E00E942F0D84E061E071
:101370000E946E0D84E060E00E946E0D84E061E0EA
:101380000E946E0D8DE060E00E946E0D8BE060E0CB
:101390000E946E0D8AE061E00E946E0D8DE060E0BB
:1013A0000E946E0D6EE170E080E090E00E943B0CC8
:1013B00081E060EE79E040E050E00E94550B089536
:1013C00083B78E7F83BF80916400807180936400B7
:1013D00081E00E94780B0E944608FC0181818823ED
:1013E000A9F083E393E0BF010E94B908882309F4C0
:1013F000FFCFF894789480913C0490E00196877038
:10140000907020913B04281709F4E99808950F93F0
:101410001F93CF93DF938C01EB01CB010E94530903
:10142000282F8A81883829F0893809F1863861F5B2
:1014300011C0DE01F80190E013968C911397818B17
:101440001B968C911B97818F9F5F119631969830D8
:1014500099F71AC0F80180E0118A118E8F5F3196DA
:101460008830D1F7F80111A2878182870DC08B8166
:101470009C81F801948783878D819E8196878587DB
:101480008F819885908B8787822FDF91CF911F91D5
:101490000F9108950F931F9300E614E0C8010E9476
:1014A000F307C80101970E942E091F910F9108951B
:1014B0001F93DF93CF93CDB7DEB765970FB6F89440
:1014C000DEBF0FBECDBF582F142F282F30E0C9012B
:1014D000880F991F820F931FE0918904F0918A046D
:1014E000E80FF91F3397818192818230910511F0C5
:1014F0000497D1F41531C0F459839E012E5F3F4FFC
:10150000C901412F50E00E94AE0480E694E0BE0184
:101510006F5F7F4F412F0E94F907109288048FE57B
:1015200094E00E942E0901C080E065960FB6F89401
:10153000DEBF0FBECDBFCF91DF911F9108950F93F6
:101540001F93DF93CF9300D000D0CDB7DEB79A833F
:1015500089837C836B8300E614E0C801BE016F5F62
:101560007F4F0E94D907C80101970E942E090F9052
:101570000F900F900F90CF91DF911F910F910895D1
:101580001F93DF93CF93CDB7DEB765970FB6F8946F
:10159000DEBF0FBECDBF122F262F30E0C901880F4E
:1015A000991F820F931FE0918904F0918A04E80F3C
:1015B000F91F339780818130C9F41531B8F46983FC
:1015C0009E012E5F3F4FC901BA01412F50E00E949A
:1015D000AE0480E694E0BE016F5F7F4F412F0E9412
:1015E0000D088FE594E00E942E0901C080E0659609
:1015F0000FB6F894DEBF0FBECDBFCF91DF911F9124
:1016000008950F931F9300E614E0C8010E94ED07B0
:10161000C80101970E942E091F910F910895CF9341
:10162000DF93EC01FC01A0E8B4E0118A118E1D9259
:10163000319684E0A838B807C1F710928B04109255
:101640008F0410928E0410928C048FEF809390047C
:1016500080939104809392041092940410929304C6
:10166000109296041092950410928D041092970493
:101670001092980410929A0410929904888199818A
:1016800090938A04809389048A8180939B048B8140
:101690009C8190939D0480939C048D8180939E04F3
:1016A0000E948009DF91CF910895823000F5E82FE4
:1016B000F0E0EE0FFF1FE156FB4F7183608388233C
:1016C00019F08130A1F408C0809169008C7F842BCF
:1016D00080936900E89A089580916900440F551F2E
:1016E000440F551F837F842B80936900E99A0895E6
:1016F000823080F4882319F0813021F402C0E89808
:1017000001C0E998E82FF0E0EE0FFF1FE156FB4F14
:101710001182108208951F920F920FB60F9211241A
:101720002F933F934F935F936F937F938F939F93E9
:10173000AF93BF93EF93FF9380919F049091A00488
:10174000892B29F0E0919F04F091A0040995FF9165
:10175000EF91BF91AF919F918F917F916F915F9129
:101760004F913F912F910F900FBE0F901F901895A2
:101770001F920F920FB60F9211242F933F934F9306
:101780005F936F937F938F939F93AF93BF93EF93E9
:10179000FF938091A1049091A204892B29F0E091FC
:1017A000A104F091A2040995FF91EF91BF91AF912F
:1017B0009F918F917F916F915F914F913F912F9169
:1017C0000F900FBE0F901F9018951F920F920FB69B
:1017D0000F9211242F933F938F939F93AF93BF93B7
:1017E0008091A7049091A804A091A904B091AA04A3
:1017F0003091AB040196A11DB11D232F2D5F2D3714
:1018000020F02D570196A11DB11D2093AB048093AC
:10181000A7049093A804A093A904B093AA0480916C
:10182000A3049091A404A091A504B091A6040196EC
:10183000A11DB11D8093A3049093A404A093A504BB
:10184000B093A604BF91AF919F918F913F912F913B
:101850000F900FBE0F901F9018958FB7F89420919E
:10186000A7043091A8044091A9045091AA048FBF05
:10187000B901CA0108959B01AC017FB7F89480912A
:10188000A3049091A404A091A504B091A60466B508
:10189000A89B05C06F3F19F00196A11DB11D7FBF28
:1018A000BA2FA92F982F8827860F911DA11DB11D32
:1018B00062E0880F991FAA1FBB1F6A95D1F7BC0170
:1018C0002DC0FFB7F8948091A3049091A404A09137
:1018D000A504B091A604E6B5A89B05C0EF3F19F09A
:1018E0000196A11DB11DFFBFBA2FA92F982F8827E0
:1018F0008E0F911DA11DB11DE2E0880F991FAA1F37
:10190000BB1FEA95D1F7861B970B885E9340C8F200
:10191000215030404040504068517C4F21153105E6
:101920004105510571F60895789484B5826084BDAF
:1019300084B5816084BD85B5826085BD85B58160D3
:1019400085BDEEE6F0E0808181608083E1E8F0E033
:101950001082808182608083808181608083E0E862
:10196000F0E0808181608083E1EBF0E08081846041
:101970008083E0EBF0E0808181608083EAE7F0E043
:1019800080818460808380818260808380818160A7
:1019900080838081806880831092C10008951F93A6
:1019A000CF93DF93182FEB0161E00E942F0D20975A
:1019B00009F44AC0CF3FD10509F449C0E12FF0E056
:1019C000E052F74F84918330C1F0843028F48130A5
:1019D00051F08230B1F50CC0863019F1873049F1F1
:1019E000843079F514C084B5806884BDC7BD33C028
:1019F00084B5806284BDC8BD2EC08091800080689F
:101A000080938000D0938900C093880024C0809187
:101A10008000806280938000D0938B00C0938A0006
:101A20001AC08091B00080688093B000C093B3006A
:101A300012C08091B00080628093B000C093B40067
:101A40000AC0C038D1051CF4812F60E002C0812F8C
:101A500061E00E946E0DDF91CF911F910895CF93A9
:101A6000DF93482F50E0CA018453974FFC01349113
:101A70004854574FFA018491882369F190E0880F08
:101A8000991FFC01E656F74FA591B491FC01EC5566
:101A9000F74FC591D491662351F42FB7F8948C91E8
:101AA000932F909589238C93888189230BC0623072
:101AB00061F42FB7F8948C91932F909589238C9390
:101AC0008881832B88832FBF06C09FB7F8948C91A1
:101AD000832B8C939FBFDF91CF910895482F50E0C7
:101AE000CA018052974FFC012491CA018453974F39
:101AF000FC0194914854574FFA013491332309F46F
:101B000040C0222351F1233071F0243028F42130D9
:101B1000A1F0223011F514C02630B1F02730C1F009
:101B20002430D9F404C0809180008F7703C0809165
:101B300080008F7D8093800010C084B58F7702C0B5
:101B400084B58F7D84BD09C08091B0008F7703C0BC
:101B50008091B0008F7D8093B000E32FF0E0EE0F16
:101B6000FF1FEC55F74FA591B4912FB7F89466235A
:101B700021F48C919095892302C08C91892B8C93B0
:101B80002FBF089508951F920F920FB60F92112440
:101B90002F933F934F938F939F93EF93FF93809156
:101BA000C00082FD1DC04091C6002091EC04309120
:101BB000ED042F5F3F4F2F7330708091EE049091B2
:101BC000EF042817390771F0E091EC04F091ED046F
:101BD000E455FB4F40833093ED042093EC0402C0A6
:101BE0008091C600FF91EF919F918F914F913F910E
:101BF0002F910F900FBE0F901F901895E091400508
:101C0000F0914105E05CFF4F8191919120813181FC
:101C1000821B930B8F739070892B11F00E94C20D61
:101C200008951F920F920FB60F9211242F933F9396
:101C30008F939F93EF93FF9320913005309131055F
:101C400080913205909133052817390731F480913E
:101C5000C1008F7D8093C10014C0E0913205F091E6
:101C60003305E051FB4F208180913205909133057F
:101C700001968F7390709093330580933205209373
:101C8000C600FF91EF919F918F913F912F910F90FF
:101C90000FBE0F901F901895AF92BF92DF92EF92F8
:101CA000FF920F931F93CF93DF93EC017A018B0187
:101CB000DD24403081EE580780E0680780E0780737
:101CC00011F0DD24D39491E0A92EB12CEC89FD898B
:101CD000DD2069F0C50108A002C0880F991F0A9491
:101CE000E2F7808360E079E08DE390E005C0108248
:101CF00060E874E88EE190E0A80197010E947611F7
:101D00002150304040405040569547953795279593
:101D100080E12030380720F0DD2011F0DD24D6CF1F
:101D2000E889F9893083EA89FB89208319A2EE8941
:101D3000FF89408121E030E0C9010C8C02C0880F8E
:101D4000991F0A94E2F7482B4083EE89FF8940816E
:101D5000C9010D8C02C0880F991F0A94E2F7482B25
:101D60004083EE89FF894081C9010E8C02C0880F33
:101D7000991F0A94E2F7482B4083EE89FF898081FE
:101D80000F8C02C0220F331F0A94E2F720952823FC
:101D90002083DF91CF911F910F91FF90EF90DF9003
:101DA000BF90AF900895DC011C96ED91FC911D97BA
:101DB000E05CFF4F2191319180819181281B390B8B
:101DC0002F733070C9010895DC011C96ED91FC91D0
:101DD0001D97E05CFF4F20813181E054F040DF012E
:101DE000AE5BBF4F8D919C9111972817390719F45D
:101DF0002FEF3FEF07C08D919C91E80FF91F808175
:101E0000282F30E0C9010895DC011C96ED91FC916A
:101E10001D97E05CFF4F20813181E054F040DF01ED
:101E2000AE5BBF4F8D919C9111972817390719F41C
:101E30002FEF3FEF10C08D919C911197E80FF91F84
:101E400020818D919C91119701968F7390701196BE
:101E50009C938E9330E0C9010895DC0191968C919A
:101E60009197882339F05496ED91FC915597808194
:101E700086FFF9CF91961C920895CF93DF93EC01E2
:101E8000EE85FF85E05CFF4F20813181E054F0401A
:101E90002F5F3F4F2F733070DF01AE5BBF4F8D91CF
:101EA0009C91119728173907D1F3E05CFF4F80818F
:101EB0009181E054F040E80FF91F6083EE85FF85C3
:101EC000E05CFF4F31832083EE89FF89208181E030
:101ED00090E00F8C02C0880F991F0A94E2F7282B1C
:101EE000208381E089A3EC89FD89808180648083DF
:101EF00081E090E0DF91CF91089510923705109224
:101F0000360588EE93E0A0E0B0E08093380590932A
:101F10003905A0933A05B0933B058DE791E0909386
:101F20003505809334058CEA94E0909341058093C5
:101F3000400580EF94E0909343058093420585EC43
:101F400090E0909345058093440584EC90E0909355
:101F500047058093460580EC90E090934905809377
:101F6000480581EC90E090934B0580934A0582EC04
:101F700090E090934D0580934C0586EC90E0909313
:101F80004F0580934E0584E08093500583E0809355
:101F9000510587E08093520585E08093530581E0E9
:101FA000809354050895CF93DF930E94940C0E9470
:101FB000F506CEEFDDE00E94CC062097E1F30E940B
:101FC000FE0DF9CFCF92DF92EF92FF920F931F9306
:101FD000CF93DF937C016B018A01C0E0D0E00FC09A
:101FE000D6016D916D01D701ED91FC910190F081C9
:101FF000E02DC7010995C80FD91F015010400115E8
:10200000110571F7CE01DF91CF911F910F91FF90D4
:10201000EF90DF90CF900895EF92FF920F931F9370
:10202000CF93DF937C018B01C0E0D0E0F8010F5F1C
:102030001F4F6491662359F0D701ED91FC910190F7
:10204000F081E02DC7010995C80FD91FEFCFCE0150
:10205000DF91CF911F910F91FF90EF900895EF9234
:10206000FF920F931F938C01DC01ED91FC91019085
:10207000F081E02D6DE009957C01D801ED91FC9196
:102080000190F081E02DC8016AE009959C012E0DB8
:102090003F1DC9011F910F91FF90EF900895EF929E
:1020A000FF920F931F937C010E940C108C01C701BB
:1020B0000E942F109C01200F311FC9011F910F9109
:1020C000FF90EF900895CF93DF93EC0161157105B8
:1020D00019F420E030E00FC0DB010D900020E9F79B
:1020E0001197A61BB70BE881F9810280F381E02DDF
:1020F000AD0109959C01C901DF91CF9108954F92DF
:102100005F927F928F929F92AF92BF92CF92DF9217
:10211000EF92FF920F931F93DF93CF93CDB7DEB76C
:10212000A1970FB6F894DEBF0FBECDBF2C01742E61
:10213000CB01223008F42AE019A231E2C32ED12CBF
:10214000CC0EDD1E822E9924AA24BB24672D752F68
:10215000A50194010E94761179018A01C801B70195
:10216000A50194010E945711472D461B0894C108F0
:10217000D1084A3014F4405D01C0495CF601408347
:10218000E114F1040105110521F07E2C5F2DC80139
:10219000DDCFC201B6010E946310A1960FB6F8947C
:1021A000DEBF0FBECDBFCF91DF911F910F91FF908A
:1021B000EF90DF90CF90BF90AF909F908F907F90E7
:1021C0005F904F900895DC012115310541F4ED91A8
:1021D000FC910190F081E02D642F099508950E94F3
:1021E0007F100895EF92FF920F931F939A01E62EAE
:1021F000FF2400E010E0B801A7010E94E3101F9146
:102200000F91FF90EF9008950E9463100895CF936F
:10221000DF93EC010E942D0C688779878A879B8762
:10222000E881F9810680F781E02DCE0109959C01B6
:1022300097FF15C00E942D0C288539854A855B853E
:10224000621B730B840B950B2C813D814E815F814A
:10225000621773078407950718F32FEF3FEFC90143
:10226000DF91CF910895CF92DF92EF92FF920F937B
:102270001F93CF93DF936C018B017A01C0E0D0E014
:1022800009C0C6010E94071197FD07C0F80181939C
:102290008F012196CE15DF05A0F3CE01DF91CF91FE
:1022A0001F910F91FF90EF90DF90CF900895629F64
:1022B000D001739FF001829FE00DF11D649FE00D3E
:1022C000F11D929FF00D839FF00D749FF00D659F9F
:1022D000F00D9927729FB00DE11DF91F639FB00D9E
:1022E000E11DF91FBD01CF0111240895A1E21A2EAD
:1022F000AA1BBB1BFD010DC0AA1FBB1FEE1FFF1FAA
:10230000A217B307E407F50720F0A21BB30BE40BF9
:10231000F50B661F771F881F991F1A9469F7609540
:102320007095809590959B01AC01BD01CF010895FA
:10233000EE0FFF1F0590F491E02D0994F894FFCF64
:10234000203A004300204500018000010200010402
:1023500000010800018000010004010200010400E6
:1023600001080001800001000401080001000401CF
:1023700002000104000102000104000108000180C4
:1023800000010004010800018000010004010800B0
:102390000100040102000104000102000104000127
:1023A0000800018000010004010200C012802540E5
:1023B00038004B8070127A0096000000003D0FE25A
:0A23C0000FD30E040FE40E2D0F00E2
:00000001FF
